:100000000C9463000C948B000C948B000C948B006C
:100010000C948B000C948B000C948B000C948E072A
:100020000C948B000C948B000C948B000C948B0024
:100030000C948B000C948B000C948B000C948B0014
:100040000C9444070C948B000C948B000C948B0044
:100050000C948B000C948B000C948B000C948B00F4
:100060000C948B000C948B000200000000240027ED
:10007000002A0000000000250028002B00000000DE
:1000800000230026002900040404040404040402DC
:100090000202020202030303030303010204081025
:1000A00020408001020408102001020408102000F2
:1000B0000000080002010000030407000000000027
:1000C00000000000AD0A11241FBECFEFD8E0DEBF54
:1000D000CDBF11E0A0E0B1E0ECE5F6E102C0059093
:1000E0000D92A038B107D9F721E0A0E8B1E001C036
:1000F0001D92AB3DB207E1F710E0C3E6D0E004C0CB
:100100002197FE010E94170BC236D107C9F70E9442
:10011000EA070C942C0B0C940000833081F028F437
:10012000813099F08230A9F008958730A9F08830A5
:10013000C9F08430B1F4809180008F7D03C080913C
:1001400080008F7780938000089584B58F7784BD79
:10015000089584B58F7DFBCF8091B0008F77809319
:10016000B00008958091B0008F7DF9CFCF93DF93D9
:10017000282F30E0F901E155FF4F8491F901E55650
:10018000FF4FD491F901E957FF4FC491CC23A1F05F
:1001900081110E948D00EC2FF0E0EE0FFF1FE3585D
:1001A000FF4FA591B491EC91ED2381E090E009F42B
:1001B00080E0DF91CF91089580E090E0FACF1F9327
:1001C000CF93DF93282F30E0F901E155FF4F849161
:1001D000F901E556FF4FD491F901E957FF4FC4915A
:1001E000CC23A9F0162F81110E948D00EC2FF0E096
:1001F000EE0FFF1FED58FF4FA591B4918FB7F89404
:10020000EC91111108C0D095DE23DC938FBFDF91F4
:10021000CF911F910895DE2BF8CFCF93DF9390E01D
:10022000FC01E556FF4F249189579F4FFC018491B3
:100230008823D1F090E0880F991FFC01E759FF4F08
:10024000A591B491FC01ED58FF4FC591D491623056
:1002500071F49FB7F8943C91822F809583238C93FF
:10026000E8812E2B28839FBFDF91CF9108958FB710
:10027000F894EC912E2B2C938FBFF6CF3FB7F894C8
:100280008091BF019091C001A091C101B091C201C4
:1002900026B5A89B05C02F3F19F00196A11DB11DE1
:1002A0003FBFBA2FA92F982F8827BC01CD01620F1D
:1002B000711D811D911D42E0660F771F881F991FD8
:1002C0004A95D1F708958F929F92AF92BF92CF92A5
:1002D000DF92EF92FF926B017C010E943E014B0185
:1002E0005C01C114D104E104F104B9F00E943E01A3
:1002F000681979098A099B09683E7340810591054F
:1003000080F321E0C21AD108E108F10888EE880ED6
:1003100083E0981EA11CB11CE4CFFF90EF90DF900A
:10032000CF90BF90AF909F908F90089590910001D3
:1003300089130BC0E8E6F0E0E4919FEF9093000191
:10034000E13049F028F0E23061F060E00C94DF0029
:1003500010926E00FACF90916F009D7F90936F0086
:10036000F4CF909170009D7F9093700091E09093F6
:10037000B0009091B100987F94609093B10010927A
:10038000B300E3CF4F925F926F927F928F929F92D2
:10039000AF92BF92CF92DF92EF92FF920F931F9393
:1003A000CF93DF9300D000D01F92CDB7DEB78B0183
:1003B00029013A01909100018917C9F09F3F09F482
:1003C0007EC00F900F900F900F900F90DF91CF9104
:1003D0001F910F91FF90EF90DF90CF90BF90AF9063
:1003E0009F908F907F906F905F904F900895E8E678
:1003F000F0E094919D8397FDE4CF61E00E940D01B0
:100400008D81882321F09D81923009F04AC14801F5
:10041000B12CA12C60E072E18AE790E0A50198017F
:100420000E94ED0A29833A834B835C8369017A0138
:1004300081E0C81AD108E108F1089FEFC916D1047C
:10044000E104F10409F00CF401C160E472E48FE00E
:1004500090E0A50198010E94ED0A69017A0181E00E
:10046000C81AD108E108F1089D81923009F0A2C0B4
:100470008FEFC816D104E104F10409F00CF4E6C1D1
:1004800060E970ED83E090E0A50198010E94ED0A1B
:1004900069017A0191E0C91AD108E108F1088FEFEA
:1004A000C816D104E104F10411F00CF07FC183E01F
:1004B0009091B100987F892B8093B100CFC0809339
:1004C0000001E8E6F0E094919D839F3F09F479CF25
:1004D000913041F150F0923009F446C09D8197FD72
:1004E00070CF61E00E940D018ECF14BC15BC94B595
:1004F000926094BD95B5916095BD282F30E0F901CB
:10050000E957FF4FE491F0E0EE0FFF1FED58FF4F6A
:1005100045915491F901E556FF4FE491E093810133
:100520001D826BCF1092800010928100909181000B
:1005300098609093810090918100916090938100E8
:10054000282F30E0F901E957FF4FE491F0E0EE0F7A
:10055000FF1FED58FF4F45915491F901E556FF4FAC
:10056000E491E093800149CF1092B0001092B10065
:100570009091B00092609093B0009091B100916022
:100580009093B100282F30E0F901E957FF4FE49133
:10059000F0E0EE0FFF1FED58FF4F4591549150933F
:1005A0008B0140938A01F901E556FF4FE491E093F6
:1005B0008C0123CF9FEFC916D104E104F10409F0A7
:1005C0000CF46DC068E478EE81E090E0A50198013C
:1005D0000E94ED0A69017A0181E0C81AD108E10898
:1005E000F1089D81992309F4FAC08FEFC816D10450
:1005F000E104F10411F00CF0FBC0EFC064E274EF11
:1006000080E090E0A50194010E94ED0A69017A0161
:1006100081E0C81AD108E108F10885E09FEFC9160A
:10062000D104E104F10409F008F442CF62E17AE771
:1006300080E090E0A50194010E94ED0A69017A0131
:1006400081E0C81AD108E108F108E5C081E09D8188
:1006500091112ECF95B5987F892B85BD2FEF3FEF58
:10066000A901411451046104710409F043C09D8142
:10067000913009F45EC0923009F46DC09111A1CEA1
:10068000C7BC209386013093870140938801509323
:10069000890180916E00826080936E0092CE82E02C
:1006A000D6CFB12CA12C60E072E18AE790E0A501E1
:1006B00098010E94ED0A69017A0181E0C81AD10807
:1006C000E108F108C114D10491E0E906F10404F550
:1006D00091E08D81813011F680918100887F892B96
:1006E000809381002FEF3FEFA90141145104610471
:1006F0007104F9F0D801AA0FBB1FA30192010E9457
:100700000C0B28EE33E040E050E00E94CB0AAFCF64
:1007100068E478EE81E090E0A50198010E94ED0A7E
:1007200069017A0181E0C81AD108E108F10893E073
:10073000D0CFD0928900C09288002093820130935C
:100740008301409384015093850180916F00826002
:1007500080936F0036CEC092B30020938D0130930A
:100760008E0140938F0150939001809170008260C0
:100770008093700026CE84E09FEFC916D104E10477
:10078000F10409F008F466CFC980DA80EB80FC80C0
:100790008AE0F594E794D794C7948A95D1F781E0DD
:1007A000C81AD108E108F10885E054CF68E478EE72
:1007B00081E090E0A50198010E94ED0A69017A01AB
:1007C00081E0C81AD108E108F1089FEFC916D104E9
:1007D000E104F10411F00CF011CF84E069CE83E064
:1007E0009FEFC916D104E104F10409F00CF432CFF3
:1007F00062E17AE780E090E0A50194010E94ED0AB1
:1008000069017A0181E0C81AD108E108F1089D81E7
:10081000992309F4B0CF86E09FEFC916D104E10413
:10082000F10409F008F444CEC980DA80EB80FC8042
:100830009AE0F594E794D794C7949A95D1F781E01C
:10084000C81AD108E108F10887E032CE82E030CE44
:10085000AF92BF92CF92DF92EF92FF920F931F93CE
:10086000CF93DF936C017B018B01040F151FEB010C
:100870005E01AE18BF08C017D10759F06991D601C3
:10088000ED91FC910190F081E02DC6010995892B35
:1008900079F7C501DF91CF911F910F91FF90EF90F4
:1008A000DF90CF90BF90AF900895089590E080E0E2
:1008B0000895CF92DF92EF92FF926B01770FEE08CF
:1008C000FF08A7019601BC0189E00E94C201C7018F
:1008D000B6010E94630189E00E94960164E170E024
:1008E00080E090E0FF90EF90DF90CF900C94630158
:1008F0008F929F92AF92BF920F931F93CF93DF93EC
:10090000CDB7DEB7A1970FB6F894DEBF0FBECDBF4F
:1009100019A2423008F44AE08E010F5D1F4F842E69
:10092000912CB12CA12CA50194010E94CB0AE62F99
:10093000B901CA01EA3044F5E05DD801EE938D01BA
:10094000232B242B252B79F790E080E0109769F07A
:10095000FD0101900020E9F73197AF014A1B5B0BC5
:10096000BD0183EC91E00E942804A1960FB6F89493
:10097000DEBF0FBECDBFDF91CF911F910F91BF9012
:10098000AF909F908F900895E95CD7CFFC010190C4
:100990000020E9F73197AF01481B590BBC0183ECEC
:1009A00091E00C942804CF93DF93EC0160E08E81FA
:1009B0000E94DF0061E08E810E94DF0060E08E8196
:1009C0000E94DF008BE891E00197F1F7DF91CF9172
:1009D0000895CF92DF92EF92FF920F931F93CF93E0
:1009E000DF936C017C0187E0E80EF11CD0E0C0E0F1
:1009F000062F10E0B8010C2E02C0759567950A9479
:100A0000E2F76170F70181917F010E94DF0021967A
:100A1000C430D10579F7C601DF91CF911F910F91B5
:100A2000FF90EF90DF90CF900C94D304CF92DF92A1
:100A3000EF92FF920F931F93CF93DF93EC01F62E6B
:100A4000642F8C810E94DF008D818F3F19F060E060
:100A50000E94DF000F2D10E08F8584FF25C06E01FE
:100A600087E0C80ED11CF12CE12CB8010E2C02C07D
:100A7000759567950A94E2F76170F60181916F01AF
:100A80000E94DF00FFEFEF1AFF0A88E0E816F1048A
:100A900061F7CE01DF91CF911F910F91FF90EF9001
:100AA000DF90CF900C94D304B80184E075956795DE
:100AB0008A95E1F7CE010E94E9046F2DCE01DF9106
:100AC000CF911F910F91FF90EF90DF90CF900C94FA
:100AD000E90440E0682F83EC91E00C94160581E076
:100AE0000E9469058BE39FE10197F1F70895CF9389
:100AF000DF93823029F49091D20198609093D201D3
:100B00008093D6011092D70180E48093D80180E1D0
:100B10008093D90180E58093DA0161E08091C7017B
:100B20000E940D018091C8018F3F19F061E00E9481
:100B30000D0161E08091C9010E940D01C3ECD1E07B
:100B40009E01235C31408091D20184FD0BC084E082
:100B500090E021962817390744F461E08E810E94C5
:100B60000D01EECF88E090E0F4CF8BE39DE001979C
:100B7000F1F760E08091C7010E94DF0060E08091A2
:100B8000C9010E94DF008091C8018F3F19F060E029
:100B90000E94DF008091D20184FD34C063E083ECC9
:100BA00091E00E94E904CBE4D6E4CE010197F1F78D
:100BB00063E083EC91E00E94E9042197F1F763E0A0
:100BC00083EC91E00E94E90483E592E00197F1F75C
:100BD00062E083EC91E00E94E9048091D20180629E
:100BE0000E94690584E08093D3018CE00E9469052E
:100BF0000E946F0582E08093D40186E0DF91CF915F
:100C00000C94690580620E9469058BE496E4019763
:100C1000F1F78091D20180620E94690583E592E03C
:100C20000197F1F78091D20180620E946905D5CFCA
:100C3000643008F063E09091D601691710F06FEF0F
:100C4000690FE62FF0E0ED53FE4F9489890F80681D
:100C50000C94690541E00E94160581E090E008953A
:100C60000F931F93CF93DF938B0128E0829FC001E6
:100C7000112480640E946905E801085F1F4F699193
:100C800083EC91E00E942A06C017D107C1F7DF91DB
:100C9000CF911F910F9108950F931F93CF93DF93DF
:100CA0000E946F0503E911E0C0E0D1E0F801D083B4
:100CB00060E08C2F0E94180662E083EC91E00E94B5
:100CC0002A06F801D18361E08C2F0E94180662E0A9
:100CD00083EC91E00E942A060E5F1F4FCF5FC03168
:100CE00029F782E090E090931E0180931D0181E03E
:100CF00090E090931A01809319018FE090E0909317
:100D00001C0180931B011092B4011092B301109248
:100D1000920110929101D093B9012FB7F89480916C
:100D2000BB019091BC01A091BD01B091BE012FBF4C
:100D30008093B5019093B601A093B701B093B80129
:100D40006091190180911D010E94180660E083ECFA
:100D500091E00E942A066091B30180911B010E94DC
:100D6000180661E083EC91E0DF91CF911F910F9124
:100D70000C942A060F931F93CF93DF93C0911D010C
:100D8000D0911E010091190110911A018C0F9D1F25
:100D90008031910514F08FE090E097FF02C090E061
:100DA00080E090931E0180931D01600F711F161645
:100DB000170614F461E070E077FF02C070E060E0B5
:100DC00070931A0160931901602F8C2F0E941806EE
:100DD000CC0FDD1FCD56DE4FC00FD11F8881882379
:100DE00009F448C062E083EC91E00E942A06009179
:100DF000190110911A01C0911D01D0911E01602F9F
:100E00008C2F0E94180660E083EC91E00E942A0675
:100E1000CC0FDD1FCD56DE4FC00FD11F8881882338
:100E200099F018828091910190919201019690938E
:100E300092018093910122E330E040E050E068EEBF
:100E400073E08BE00E94C201E3E9F1E081E0908170
:100E5000911180E09181911180E0329691E0E33B25
:100E6000F907A9F7882359F0DF91CF911F910F91CE
:100E70000C944C0684E791E00E94C604B8CFDF9141
:100E8000CF911F910F9108951F920F920FB60F925D
:100E900011242F933F938F939F93AF93BF93809190
:100EA000BB019091BC01A091BD01B091BE013091F8
:100EB000BA0123E0230F2D3758F50196A11DB11D6E
:100EC0002093BA018093BB019093BC01A093BD0114
:100ED000B093BE018091BF019091C001A091C1016A
:100EE000B091C2010196A11DB11D8093BF019093E5
:100EF000C001A093C101B093C201BF91AF919F9176
:100F00008F913F912F910F900FBE0F901F901895CA
:100F100026E8230F0296A11DB11DD2CF1F920F927A
:100F20000FB60F9211242F933F934F935F936F93BC
:100F30007F938F939F93AF93BF93EF93FF93809192
:100F40008D0190918E01A0918F01B0919001892B1C
:100F50008A2B8B2BD1F190918C01E0918A01F09139
:100F60008B0180818927808380918D0190918E01F2
:100F7000A0918F01B0919001181619061A061B0650
:100F80009CF480918D0190918E01A0918F01B09180
:100F900090010197A109B10980938D0190938E0171
:100FA000A0938F01B0939001FF91EF91BF91AF910A
:100FB0009F918F917F916F915F914F913F912F9171
:100FC0000F900FBE0F901F901895809100010E9406
:100FD0009601EACF789484B5826084BD84B581603F
:100FE00084BD85B5826085BD85B5816085BD8091F4
:100FF0006E00816080936E0010928100809181006C
:101000008260809381008091810081608093810063
:10101000809180008160809380008091B100846025
:101020008093B1008091B00081608093B000809186
:101030007A00846080937A0080917A008260809345
:101040007A0080917A00816080937A0080917A00A2
:10105000806880937A001092C10062E083E00E9471
:101060000D0162E082E00E940D0162E08DE00E94CD
:101070000D0162E08CE00E940D0161E089E00E94B8
:101080000D0161E08BE00E940D0182E00E94770576
:1010900061E171E080E00E94300669E071E081E08A
:1010A0000E94300661E071E082E00E9430060E94FA
:1010B0006F0560E080E00E9418068FE291E00E94D8
:1010C000C60461E080E00E94180689E391E00E9476
:1010D000C6046CED75E080E090E00E9463010E9420
:1010E0006F0560E080E00E94180688E491E00E94AD
:1010F000C60461E080E00E94180685E591E00E9448
:10110000C60464EC79E080E090E00E94630164E64C
:1011100070E085E291E00E94590464E670E085E2A7
:1011200091E00E94590464E670E08BE492E00E9432
:10113000590464E670E088EB91E00E94590464E68B
:1011400070E08FE991E00E94590464E670E088E85D
:1011500091E00E94590468EC70E08DE591E00E94F6
:10116000590464E670E085E291E00E94590464E667
:1011700070E08DE591E00E94590464E670E088E833
:1011800091E00E94590464E670E085E091E00E94DD
:10119000590464E670E085E091E00E94590464E639
:1011A00070E08BE492E00E94590464E670E088EB02
:1011B00091E00E94590464E670E08FE991E00E949A
:1011C000590464E670E088E891E00E94590468ECF4
:1011D00070E08DE591E00E94590464E670E085E2DC
:1011E00091E00E94590464E670E08DE591E00E9470
:1011F000590464E670E088E891E00E94590464E6CE
:1012000070E087EF90E00E94590464E670E087EF99
:1012100090E00E94590464E670E08BE492E00E9442
:10122000590464E670E088EB91E00E94590464E69A
:1012300070E08FE991E00E94590464E670E088E86C
:1012400091E00E94590468EC70E08DE591E00E9405
:10125000590464E670E085E291E00E94590464E676
:1012600070E08DE591E00E94590464E670E088E842
:1012700091E00E9459040E944C0600E010E0809129
:10128000B901882309F442C183E00E94B6004C01F1
:1012900066246394892B09F4612C82E00E94B600D5
:1012A0005C0177247394892B09F4712C8DE00E94E2
:1012B000B6006C01D1E0892B09F4D0E08CE00E94EB
:1012C000B6007C01C1E0892B09F4C0E0892851F403
:1012D00080912201882331F070E060E08FEF9FEF72
:1012E0000E94BA06AB2851F480912101882331F085
:1012F00070E060E081E090E00E94BA06CD2851F4F1
:1013000080912001882331F06FEF7FEF90E080E043
:101310000E94BA06EF2851F480911F01882331F012
:1013200061E070E090E080E00E94BA0660922201E5
:1013300070922101D0932001C0931F012FB7F89420
:101340008091BB019091BC01A091BD01B091BE0103
:101350002FBF4091B5015091B6016091B7017091D6
:10136000B801841B950BA60BB70B893E9340A105D2
:10137000B10508F447C0C0911B01D0911C01E09059
:10138000B301F090B40180911D0190911E01C81726
:10139000D9070CF0C2C0CE01019690931C01809336
:1013A0001B016E2D8C2F0E941806CC0FDD1FCD5611
:1013B000DE4FCE0DDF1D8881882309F4C9C062E0AD
:1013C00083EC91E00E942A066091B30180911B0199
:1013D0000E94180661E083EC91E00E942A062FB774
:1013E000F8948091BB019091BC01A091BD01B09196
:1013F000BE012FBF8093B5019093B601A093B701B2
:10140000B093B80120911D0130911E0180911B0104
:1014100090911C012817390709F078C02091190113
:1014200030911A018091B3019091B40128173907C6
:1014300009F06CC01092B90189E00E9496012CE27B
:1014400031E040E050E060E971E08BE00E94C201D1
:101450006CE271E080E090E00E9463012CE231E0F8
:1014600040E050E06CE271E08BE00E94C2016CE26F
:1014700071E080E090E00E94630124EF31E040E001
:1014800050E068EC70E08BE00E94C20164EF71E014
:1014900080E090E00E9463018BE00E9496010E9430
:1014A0006F0560E080E00E94180686E691E00E94E9
:1014B000C60461E080E00E94180686E791E00E9481
:1014C000C604C0909101D09092010D2C000CEE0842
:1014D000FF084AE0C701B601F7FE0EC041E06DE229
:1014E00083EC91E00E94160566277727CB016C19E3
:1014F0007D098E099F094AE00E94780468EB7BE031
:1015000080E090E00E9463010E944C0601151105E5
:1015100009F4B5CE0E940000B2CE8C179D071CF4D2
:10152000CE0101973ACF8091190190911A01E816E6
:10153000F9063CF4C70101969093B4018093B3017E
:1015400030CF8E159F050CF02CCFC7010197F4CF3B
:1015500084E791E00E94C60437CFE3ECF1E0138208
:10156000128287E291E0918380838AE084838FEF07
:10157000858388E0868387E0878386E0808785E0AF
:10158000818784E0828713861486158616861786DF
:1015900081E00C947705A1E21A2EAA1BBB1BFD016A
:1015A0000DC0AA1FBB1FEE1FFF1FA217B307E40742
:1015B000F50720F0A21BB30BE40BF50B661F771F9A
:1015C000881F991F1A9469F760957095809590957A
:1015D0009B01AC01BD01CF010895052E97FB1EF4C0
:1015E00000940E94040B57FD07D00E94CB0A07FC11
:1015F00003D04EF40C94040B5095409530952195F2
:101600003F4F4F4F5F4F089590958095709561952E
:101610007F4F8F4F9F4F08950E941D0BA59F900DE8
:10162000B49F900DA49F800D911D11240895EE0F7D
:10163000FF1F0590F491E02D0994A29FB001B39F84
:10164000C001A39F700D811D1124911DB29F700DCB
:0C165000811D1124911D0895F894FFCF16
:10165C00FF0000000E0E00000000000E151F1F15ED
:10166C000000000E1B1C0E000001000F0002000108
:10167C00010101000000002A0628045604550450FC
:10168C0041434D414E203A7600616363696F6E3A77
:10169C00497A712F446572004172726962612F41FF
:1016AC0062616A6F0050756C7365207061726120A5
:1016BC006D6F7665720047414D45204F564552205F
:1016CC0020202020200050756E74616A653A20003D
:00000001FF
