:020000040000FA
:100000000C945D000C9485000C9485000C94850084
:100010000C9485000C9485000C9485000C9485004C
:100020000C9485000C9485000C9485000C9485003C
:100030000C9485000C9485000C9485000C9485002C
:100040000C9492040C9485000C9485000C9485000B
:100050000C9485000C9485000C9485000C9485000C
:100060000C9485000C94850000000008000201003B
:100070000003040700000000000000000000000072
:10008000250028002B0000000000240027002A0083
:10009000040404040404040402020202020203032E
:1000A0000303030301020408102040800102040836
:1000B0001020010204081020C20511241FBECFEF3A
:1000C000D8E0DEBFCDBF11E0A0E0B1E0EEE2FEE09F
:1000D00002C005900D92AA34B107D9F721E0AAE435
:1000E000B1E001C01D92A038B207E1F710E0CDE504
:1000F000D0E004C02197FE010E940F07CC35D10744
:10010000C9F70E94DC040C9415070C94000090E0E1
:10011000FC01EC55FF4F249180579F4FFC018491C7
:10012000882399F090E0880F991FFC01EA57FF4F50
:10013000A591B491FC01E458FF4F859194918FB73C
:10014000F894EC91E22BEC938FBF089590E0FC01C2
:10015000E859FF4F2491FC01EC55FF4F3491FC010D
:10016000E057FF4FE491EE23C9F0222339F023300A
:1001700001F1A8F4213019F1223029F1F0E0EE0F5D
:10018000FF1FE458FF4FA591B4918FB7F894EC91FD
:10019000611126C030953E233C938FBF08952730D0
:1001A000A9F02830C9F0243049F7809180008F7D74
:1001B00003C0809180008F7780938000DFCF84B56B
:1001C0008F7784BDDBCF84B58F7DFBCF8091B0006E
:1001D0008F778093B000D2CF8091B0008F7DF9CF20
:1001E0003E2BDACF8E50806480937C0080917A0021
:1001F000806480937A0080917A0086FDFCCF8091A4
:1002000078009091790008953FB7F8948091640147
:1002100090916501A0916601B091670126B5A89BF8
:1002200005C02F3F19F00196A11DB11D3FBFBA2F88
:10023000A92F982F8827BC01CD01620F711D811D48
:10024000911D42E0660F771F881F991F4A95D1F7CD
:1002500008958F929F92AF92BF92CF92DF92EF92CA
:10026000FF924B015C010E9404016B017C010E9422
:1002700004016C197D098E099F09683E7340810550
:100280009105A8F321E0821A9108A108B10888EE2F
:10029000C80E83E0D81EE11CF11C81149104A10456
:1002A000B10429F7FF90EF90DF90CF90BF90AF900F
:1002B0009F908F9008952FB7F8946091600170918E
:1002C000610180916201909163012FBF0895AF9207
:1002D000BF92CF92DF92EF92FF920F931F93CF9333
:1002E000DF936C017B018B01040F151FEB015E0195
:1002F000AE18BF08C017D10759F06991D601ED912A
:10030000FC910190F081E02DC6010995892B79F7C8
:10031000C501DF91CF911F910F91FF90EF90DF907A
:10032000CF90BF90AF900895089590E080E0089539
:100330008EE00E94F200893E23E0920764F4843B41
:10034000910534F08830924034F482E090E00895D2
:1003500081E090E008958FEF9FEF08958F929F9234
:10036000AF92BF920F931F93CF93DF93CDB7DEB7BA
:10037000A1970FB6F894DEBF0FBECDBF19A24230D1
:1003800008F44AE08E010F5D1F4F842E912CB12C92
:10039000A12CA50194010E94B606E62FB901CA015D
:1003A000EA3044F5E05DD801EE938D01232B242B38
:1003B000252B79F790E080E0109769F0FD0101901E
:1003C0000020E9F73197AF014A1B5B0BBD0188E6BE
:1003D00091E00E946701A1960FB6F894DEBF0FBEB0
:1003E000CDBFDF91CF911F910F91BF90AF909F90A4
:1003F0008F900895E95CD7CFFC0101900020E9F7C8
:100400003197AF01481B590BBC0188E691E00C9471
:100410006701CF93DF93EC0160E08E810E94A6001C
:1004200061E08E810E94A60060E08E810E94A6009D
:100430008BE891E00197F1F7DF91CF910895CF928A
:10044000DF92EF92FF920F931F93CF93DF936C0194
:100450007C0187E0E80EF11CD0E0C0E0062F10E040
:10046000B8010C2E02C0759567950A94E2F7617089
:10047000F70181917F010E94A6002196C430D10529
:1004800079F7C601DF91CF911F910F91FF90EF9007
:10049000DF90CF900C940902CF92DF92EF92FF92FF
:1004A0000F931F93CF93DF93EC01F62E642F8C8173
:1004B0000E94A6008D818F3F19F060E00E94A60087
:1004C0000F2D10E08F8584FF25C06E0187E0C80ED8
:1004D000D11CF12CE12CB8010E2C02C0759567954A
:1004E0000A94E2F76170F60181916F010E94A60003
:1004F000FFEFEF1AFF0A88E0E816F10461F7CE017A
:10050000DF91CF911F910F91FF90EF90DF90CF90EF
:100510000C940902B80184E0759567958A95E1F716
:10052000CE010E941F026F2DCE01DF91CF911F914E
:100530000F91FF90EF90DF90CF900C941F0240E05E
:10054000682F88E691E00C944C0281E00E949F02A3
:100550008BE39FE10197F1F70895CF93DF9382300A
:1005600029F49091770198609093770180937B01B3
:1005700010927C0180E480937D0180E180937E0174
:1005800080E580937F0180916C010E9487008091BB
:100590006D018F3F11F00E94870080916E010E94D3
:1005A0008700C8E6D1E09E0128563140809177014E
:1005B00084FD0AC084E090E02196281739073CF4B6
:1005C0008E810E948700EFCF88E090E0F5CF8BE32B
:1005D0009DE00197F1F760E080916C010E94A60018
:1005E00060E080916E010E94A60080916D018F3FB6
:1005F00019F060E00E94A6008091770184FD34C06C
:1006000063E088E691E00E941F02CBE4D6E4CE01CD
:100610000197F1F763E088E691E00E941F022197BD
:10062000F1F763E088E691E00E941F0283E592E023
:100630000197F1F762E088E691E00E941F02809145
:10064000770180620E949F0284E0809378018CE0B1
:100650000E949F020E94A50282E08093790186E0B9
:10066000DF91CF910C949F0280620E949F028BE4E5
:1006700096E40197F1F78091770180620E949F02D2
:1006800083E592E00197F1F78091770180620E9403
:100690009F02D5CF643008F063E090917B01691729
:1006A00010F06FEF690FE62FF0E0E859FE4F9489E4
:1006B000890F80680C949F0241E00E944C0281E007
:1006C00090E008950F931F93CF93DF9382E00E94F1
:1006D000AD0280E40E949F02C8E0D1E000E111E099
:1006E000699188E691E00E945C030C171D07C1F731
:1006F00088E40E949F02C0E0D1E0699188E691E021
:100700000E945C0321E0C830D207B9F78FE00E9455
:10071000F200BC01990F880B990B611571058105D9
:10072000910511F00E947B060E94A50260E080E026
:100730000E944A0380E291E00E94FC0161E080E0B7
:100740000E944A0387E291E00E94FC010E94980106
:100750000196E1F364EF71E080E090E00E942901EE
:100760000E94A5028FE090E090934F0180934E018C
:1007700010925301109252019093510180935001B5
:1007800081E090E0909355018093540160914C0179
:1007900080E00E944A0360E088E691E00E945C03EA
:1007A00060E08FE00E944A0361E088E691E00E94E9
:1007B0005C0361E08FE00E944A0361E088E691E01B
:1007C0000E945C0381E080935E010E945B01609364
:1007D0005A0170935B0180935C0190935D010E94CC
:1007E0005B01609356017093570180935801909379
:1007F0005901DF91CF911F910F910895CF92DF9210
:10080000EF92FF927C0160914C0180E00E944A03CC
:1008100088E491E00E94FC0180914C0190914D018F
:100820008E0D9F1D62E070E00E94E7068F3F9807E3
:10083000C9F190934D0180934C01E0904C01F090F0
:100840004D016E2D80E00E944A0360E088E691E051
:100850000E945C0380914E0190914F01892B39F4E5
:100860008091520190915301E816F906F1F08091C0
:10087000500190915101892B39F48091540190914C
:100880005501E816F90689F080914A0190914B01D3
:10089000019690934B0180934A01FF90EF90DF9077
:1008A000CF90089581E090E0C4CF10925E010E9445
:1008B000A50260E080E00E944A0388E391E00E9484
:1008C000FC0161E080E00E944A0382E491E00E9422
:1008D000FC01C0904A01D0904B010D2C000CEE0899
:1008E000FF084AE0C701B601F7FE0EC041E06DE225
:1008F00088E691E00E944C0266277727CB016C19AD
:100900007D098E099F094AE00E94AE0168EB7BE0F9
:1009100080E090E00E942901FF90EF90DF90CF905F
:100920000C9462031F920F920FB60F9211242F9313
:100930003F938F939F93AF93BF938091600190916A
:100940006101A0916201B091630130915F0123E0E8
:10095000230F2D3758F50196A11DB11D20935F017E
:100960008093600190936101A0936201B093630151
:100970008091640190916501A0916601B091670139
:100980000196A11DB11D8093640190936501A09310
:100990006601B0936701BF91AF919F918F913F9195
:1009A0002F910F900FBE0F901F90189526E8230FE0
:1009B0000296A11DB11DD2CF789484B5826084BD0A
:1009C00084B5816084BD85B5826085BD85B5816053
:1009D00085BD80916E00816080936E0010928100D1
:1009E000809181008260809381008091810081608C
:1009F000809381008091800081608093800080914D
:100A0000B10084608093B1008091B00081608093D8
:100A1000B00080917A00846080937A0080917A009F
:100A2000826080937A0080917A00816080937A005E
:100A300080917A00806880937A001092C1000E94B1
:100A400062038FE0C82ED12C92E0492E512C612CEC
:100A5000712C20E0E22E20E0F22E80915E018823AE
:100A600009F46CC00E945B0100915A0110915B0176
:100A700020915C0130915D01601B710B820B930B27
:100A80006D32714081059105A0F00E94980181307E
:100A9000910509F05AC08FEF9FEF0E94FE030E945C
:100AA0005B0160935A0170935B0180935C019093AA
:100AB0005D010E945B010091560110915701209148
:100AC000580130915901601B710B820B930B653FEC
:100AD00071408105910590F1C2E5D1E00EE411E08D
:100AE0005E016881F80180810E944A0388E491E0F8
:100AF0000E94FC01F80180819181019797FD2BC034
:100B0000918380832296F5016081F80180810E94A3
:100B10004A0361E088E691E00E945C030E5F1F4F8C
:100B2000F1E0C635DF07E1F60E945B0160935601F4
:100B3000709357018093580190935901E114F10487
:100B400009F48BCF0E94000088CF029709F0A7CF4D
:100B500081E090E0A2CFD182C0820E942C06A30146
:100B600092010E948406672B682B692B59F681E05D
:100B700090E028813981232B11F090E080E0998367
:100B80008883C0CFE8E6F1E01382128288E191E029
:100B9000918380838AE084838FEF858389E08683D5
:100BA00088E0878387E0808786E0818785E0828789
:100BB0001386148615861686178681E00C94AD027E
:100BC0008F929F92AF92BF92CF92DF92EF92FF925D
:100BD000CF93DF93EC01688179818A819B816115D4
:100BE00071058105910521F464E279ED8BE597E0CB
:100BF0002DE133EF41E050E00E94840649015A01A3
:100C00009B01AC01A7EAB1E40E94A3066B017C0141
:100C1000ACEEB4EFA50194010E94B106C60ED71E3A
:100C2000E81EF91EF7FE06C081E0C81AD108E108E7
:100C300080E8F80AC882D982EA82FB82C701B6013D
:100C40009F77DF91CF91FF90EF90DF90CF90BF9093
:100C5000AF909F908F9008958F929F92AF92BF9286
:100C6000CF92DF92EF92FF9260911001709111018B
:100C70008091120190911301611571058105910513
:100C800021F464E279ED8BE597E02DE133EF41E06B
:100C900050E00E94840649015A019B01AC01A7EA79
:100CA000B1E40E94A3066B017C01ACEEB4EFA50198
:100CB00094010E94B106C60ED71EE81EF91EF7FE6B
:100CC00006C081E0C81AD108E10880E8F80AC0929D
:100CD0001001D0921101E0921201F0921301C701AC
:100CE000B6019F77FF90EF90DF90CF90BF90AF90CD
:100CF0009F908F90089560931001709311018093DD
:100D00001201909313010895052E97FB1EF4009491
:100D10000E949B0657FD07D00E94B60607FC03D031
:100D20004EF40C949B0650954095309521953F4F7D
:100D30004F4F5F4F089590958095709561957F4FC7
:100D40008F4F9F4F08950E94D806A59F900DB49F86
:100D5000900DA49F800D911D11240895B7FF0C9450
:100D6000A3060E94A306821B930B0895A1E21A2EEC
:100D7000AA1BBB1BFD010DC0AA1FBB1FEE1FFF1F3F
:100D8000A217B307E407F50720F0A21BB30BE40B8F
:100D9000F50B661F771F881F991F1A9469F76095D6
:100DA0007095809590959B01AC01BD01CF01089590
:100DB000A29FB001B39FC001A39F700D811D11249C
:100DC000911DB29F700D811D1124911D089597FBF7
:100DD000072E16F4009407D077FD09D00E94FB0679
:100DE00007FC05D03EF4909581959F4F089570952E
:100DF00061957F4F0895AA1BBB1B51E107C0AA1F35
:100E0000BB1FA617B70710F0A61BB70B881F991FAB
:100E10005A95A9F780959095BC01CD010895EE0FE4
:100E2000FF1F0590F491E02D0994F894FFCF000086
:100E30000E151F1F150000000E1B1C0E00000100E8
:100E40000000000000005C0367019501940150411F
:100E5000434D414E0050756C73612070617261208A
:100E60006A756761720047414D45204F56455200F3
:080E700053636F72653A200024
:107E0000112484B714BE81FFF0D085E080938100F7
:107E100082E08093C00088E18093C10086E0809377
:107E2000C20080E18093C4008EE0C9D0259A86E02C
:107E300020E33CEF91E0309385002093840096BBD3
:107E4000B09BFECF1D9AA8958150A9F7CC24DD24C4
:107E500088248394B5E0AB2EA1E19A2EF3E0BF2EE7
:107E6000A2D0813461F49FD0082FAFD0023811F036
:107E7000013811F484E001C083E08DD089C08234E0
:107E800011F484E103C0853419F485E0A6D080C0E4
:107E9000853579F488D0E82EFF2485D0082F10E0AE
:107EA000102F00270E291F29000F111F8ED06801E7
:107EB0006FC0863521F484E090D080E0DECF843638
:107EC00009F040C070D06FD0082F6DD080E0C81688
:107ED00080E7D80618F4F601B7BEE895C0E0D1E017
:107EE00062D089930C17E1F7F0E0CF16F0E7DF06D8
:107EF00018F0F601B7BEE89568D007B600FCFDCFD4
:107F0000A601A0E0B1E02C9130E011968C91119780
:107F100090E0982F8827822B932B1296FA010C0160
:107F200087BEE89511244E5F5F4FF1E0A038BF0790
:107F300051F7F601A7BEE89507B600FCFDCF97BE46
:107F4000E89526C08437B1F42ED02DD0F82E2BD052
:107F50003CD0F601EF2C8F010F5F1F4F84911BD097
:107F6000EA94F801C1F70894C11CD11CFA94CF0C13
:107F7000D11C0EC0853739F428D08EE10CD085E9AC
:107F80000AD08FE07ACF813511F488E018D01DD067
:107F900080E101D065CF982F8091C00085FFFCCF94
:107FA0009093C60008958091C00087FFFCCF809118
:107FB000C00084FD01C0A8958091C6000895E0E648
:107FC000F0E098E1908380830895EDDF803219F02E
:107FD00088E0F5DFFFCF84E1DECF1F93182FE3DFCA
:107FE0001150E9F7F2DF1F91089580E0E8DFEE27F6
:047FF000FF270994CA
:027FFE00040479
:00000001FF
